:020000040000fa
:080000000002040000000000f2
:020000040000fa
:100008009a0200009a0200009a0200009a02000078
:100018009a0200009a0200009a0200009a02000068
:100028009a0200009a0200009a0200009a02000058
:100038009a0200009a0200009a0200009a02000048
:020000040000fa
:020000040000fa
:100400000f8120000e7f24000e01880000000000f4
:10041000000020000000e000020032000001200087
:10042000200288000c000700c036250001002000d3
:1004300011000700000020000000e0000200320070
:1004400000000200000000009652020000000000c0
:100450000040da000000fe004440a90040e2240011
:100460000000e0000300320000002000a00188002e
:100470004440a80000000600910188008000780038
:100480000000eb0015003700e280400032a0b4000d
:100490009101ba00e280400032a0b4009102ba009b
:1004a000e280400032a0b4000002eb00472bde00e7
:1004b000f507b200602ce10004003a000059eb009f
:1004c0008301e900fdff3e00040037006128e100e0
:1004d000010032000082eb00040007001101ba00a5
:1004e0000200e000e8ff3a00000006003159ba00bf
:1004f0008301e9000c0032002159ba008301e900b0
:10050000080032000400e00003003a00e2804000ee
:1005100032a0b400f5ff370011d9ba008301e90019
:10052000faff3a008100e800e180400032a0b40008
:10053000000006000040da000000fe000001be00de
:10054000220007000470a70003f0a1006509b100b4
:10055000160032000d0035006828e1000600350065
:10056000f0ff2f00f1ff27000300e00013003b0025
:1005700001002800000005000000400081804800c4
:100580008502e900fcff3a0008003700f88f4200be
:1005900002003c008000eb00000005008100d1005b
:1005a0000080d3008502e800fcff3a000300e00071
:1005b00002003b0060001000e08018000000060010
:1005c0004f89de008201780049003700c70ade004b
:1005d000f107b200f50fb20008003200e1cf42008f
:1005e000020032000170a00024000500810f70009d
:1005f000010032000408050044000500810f70006e
:1006000002003a00140005008502e90000004000e5
:1006100081c04800fcff3b000170a00024000500e1
:10062000889fbe008a9fbe008c1f7800950007003f
:100630009c00330003866c006450e100240032000b
:100640006420e100270032006150e1002200320006
:100650006120e100210032008b854200eb07b100f0
:100660000134b800003ab8000804420089844a0006
:10067000013ab8000030b8008880400009014a0003
:10068000040033000000400081804800020149005e
:100690008b05e900c909dd0083017000010032000b
:1006a00013002000c814de004814dd004709de00f6
:1006b0001200b200c808de00088470004b0007007a
:1006c00001f0a1000cf0a70001f0a0007e003700af
:1006d0006120e100800032000801be000200be007f
:1006e000f7ff37006150e100fcff3a007a00370065
:1006f000881f7800030478000300e00007003d0035
:1007000060001000e080180060011900e08119000d
:1007100002003b0001f02d00030037000400070039
:1007200008f0a70001f0a0004f04780000000600c8
:10073000889fbe008a9fbe00008270000402710084
:1007400004827100260032000004be000200be00d8
:100750006011b8006b092000950220000182cf00d3
:100760000a0039000541b1000082cf0007003900be
:100770000541b1000982cf00040039000541b100f4
:100780000882cf00010039000541b1000542520046
:10079000120032000a003b00828171006101640096
:1007a0008100d1000080d3008984d3000884d30065
:1007b0008b05e8000442e800f7ff3a000700370025
:1007c0000804440089844c000000480081804800ef
:1007d0008b05e9000442e900f9ff3a000300070035
:1007e0004f05be004f04be0000000600810020003f
:1007f000618055000b003d000b00200061fe2f00c2
:100800000100e1001d00340082817100610164007b
:100810008904d1000884d3000000e800faff3a0000
:10082000710020006100640003007000020060009d
:100830000900320061044400e0844c000988a500ee
:10084000050032008b05e8006808e10002003a006c
:100850008904d1000884d300f20f20000258e1007f
:1008600005003d00c75ddd00f907b2008980750015
:1008700008007800000006000bf827008b007800c5
:10088000000005000004be0050ff07000003be008a
:100890000405be000200be004cff0700844f750037
:1008a000000006000200be006450e10005003600b2
:1008b0006420e100020036000968a30001003a004c
:1008c0000800be000160a0004f0678004f05be0082
:1008d0004f04be0000000600f0ff2f00f1ff2700cc
:0408e000f9ff3700e5
:020000040000fa
:1008e40000000000000000005b360000843b0000b4
:1008f400793e0000833c000099d70000113d0000c0
:1009040003d200007e3d00000da90000c23d00009e
:10091400da550000083e0000b5890000333e0000af
:10092400309e0000613e000025920000883e0000d9
:10093400554d0000a03e0000bd3a0000b73e000047
:1009440070940000cc3e000024970000df3e0000bd
:10095400a88c0000ef3e0000e6cb0000fb3e000048
:100964006ade0000013f000026700000033f000023
:1009740062670000023f0000c4420000fd3e000028
:100984006b0e0000f03e00007c2c0000dd3e0000f9
:10099400eeb10000c43e00000edb0000a63e0000e5
:1009a400fc000000843e00003a3b0000393e000099
:1009b40089250000c53d000076fb0000ac3b00002b
:1009c400836c0000b9bd00002714000042be000083
:1009d4006570000094be00000a9d0000c7be0000c0
:1009e400e99a0000f9be0000c3bb000014bf000078
:1009f400812100002bbf00009f8e00003fbf00003c
:100a0400e99a000051bf0000b0e6000060bf00009a
:100a1400572100006dbf00000708000076bf0000ea
:100a2400516600007bbf0000711b00007dbf000009
:100a3400b51500007bbf0000bc57000075bf000067
:100a440030f500006bbf0000ba1400005fbf000067
:100a54000fee00004ebf000050c700003bbf000077
:100a6400a5f7000025bf0000b5e000000dbf0000a1
:100a7400e3df0000e7be000043390000b1be000020
:100a8400aa82000071be0000fce30000fdbd00006e
:100a94001de600004bbc0000083e0000c63d0000ff
:100aa4007fc100004e3e0000b62d00009a3e0000bb
:100ab40042260000c93e0000548c0000f33e0000b2
:100ac400aa6000000c3f0000712000001c3f0000e1
:100ad400aed30000283f00009f590000323f0000c1
:100ae4002fa30000383f0000ffb200003b3f00008e
:100af400679b00003b3f000073800000383f00000c
:100b040042950000323f00005c1b00002a3f0000b9
:100b1400186000001f3f000045bb0000123f0000aa
:100b2400938c0000043f0000cd750000ea3e0000f5
:100b3400855f0000ca3e0000a4aa0000a93e000090
:100b4400302a0000893e0000cb4a0000533e0000da
:100b540041b70000173e0000c6e00000c13d0000a0
:100b6400b4900000403d00008c140000ca3b00001b
:100b7400e3170000debc0000bf27000056bd0000e4
:100b84000a6900008dbd0000e96300009ebd0000fd
:100b9400245e00009ebd0000a52d00008ebd000057
:100ba400333400005ebd00003bab000005bd000017
:100bb400f50e0000b7bb000087c30000d23c000064
:100bc400adda0000753d0000a8700000c43d0000cf
:100bd400c4250000073e000083c000002a3e000038
:100be4009b8f00004b3e0000e92b0000683e000094
:100bf400033e00007f3e00003acc0000873e000028
:100c04003b1900008c3e0000ec1700008c3e0000f5
:100c1400b8750000873e0000a30100007c3e000080
:100c2400e14500005f3e000021cd0000383e000099
:100c3400e5ed0000083e0000427c0000a03d0000fd
:100c4400a5f80000783c0000e048000060bd00000a
:100c54001f68000005be0000ff04000057be00002e
:100c640047ac000095be0000715a0000c0be0000f1
:100c74008aab0000eabe0000c2dd000009bf00002c
:100c8400d75100001dbf0000424300002fbf0000e9
:100c9400304700003fbf0000adfa00004cbf000029
:100ca400e605000058bf00002e1c000060bf0000d5
:100cb4009bfe000064bf0000fe7d000066bf0000d4
:100cc400317c000064bf000070eb00005ebf0000d8
:100cd400a2d1000055bf00000f45000049bf00002d
:100ce400596e000039bf00002b87000026bf0000aa
:100cf400edd8000010bf0000de760000f1be000059
:100d0400ee250000bdbe00007ba0000085be0000f3
:100d1400e8a4000017be0000bccb000005bd000025
:100d2400a1a20000aa3d00000ea100004a3e00005e
:100d34001d3d00009e3e000042780000d43e0000ad
:100d4400fc8c0000033f0000a4a500001a3f000033
:100d5400132700002f3f00005dbf0000403f00004c
:100d6400522c00004f3f0000d23a00005a3f0000ce
:100d7400c1ca0000613f000064cc0000653f000070
:100d840003430000663f00003d440000633f000051
:100d9400c7f400005c3f0000058b0000533f0000d7
:100da400c74b0000473f0000a0890000383f000007
:100db400a1a10000273f00005df90000143f0000de
:100dc400effe0000003f0000d0440000d83e0000c9
:100dd4008eaf0000ad3e00008a1f0000833e00007d
:100de4002ee70000323e000027f50000c53d00005c
:100df4006dc80000bf3c0000740d000033bd00004e
:100e0400c0210000d4bd00007afc00001ebe00001a
:100e14009fcd00004abe0000b70b00006dbe00006d
:100e24008cbe000082be0000301200008abe0000aa
:100e34007aa500008cbe0000f5b900008abe00004f
:100e4400b0ac000084be0000e2e9000075be000002
:100e54002d4300005cbe0000b1a700003dbe0000b1
:100e6400767100001bbe000035240000eebd0000ba
:100e7400e8140000a4bd0000ba4a000037bd000019
:100e84005fec00003dbc00009c870000933c000028
:100e9400d45f00002f3d00008cd700007c3d000093
:100ea400d82c0000973d00000d6d0000a03d00000f
:100eb4000d170000993d0000e3890000803d00000b
:100ec400c44200002d3d000052b500005d3c00000e
:100ed4009d850000bdbc0000da58000089bd0000fb
:100ee400696f0000f0bd00002041000031be000029
:100ef400958200006ebe0000164d000097be0000f3
:100f040009fe0000b7be0000a9870000d8be00009b
:100f1400a0150000f8be0000cde900000abf0000e3
:100f24009678000018bf0000e752000024bf0000bc
:100f3400581c00002ebf00005e80000035bf00007a
:100f4400323800003abf0000e20600003cbf000057
:100f54002bc100003abf00009049000036bf0000da
:100f6400ee9400002ebf000082a8000023bf000002
:100f74003d9b000015bf00007094000004bf0000fa
:100f8400e09c0000e1be000057210000b5be000057
:100f94009964000084be0000e353000020be0000fa
:100fa400677d00004abd0000fb0200007a3d00009e
:100fb4006d1c0000313e0000419a0000913e00008b
:100fc4007b660000c93e00009df40000fe3e000068
:100fd400bda90000183f0000d9ce00002f3f00003b
:100fe4001f800000443f000028610000563f0000bd
:100ff40057210000653f000073800000703f00002f
:10100400a54e0000783f0000c66d00007c3f000044
:1010140063d100007c3f0000637f0000793f000043
:1010240004900000723f0000e02d0000683f0000c3
:10103400a39200005a3f00005b0800004a3f0000f2
:101044008ae50000363f0000ce8d0000213f0000fd
:10105400986e00000a3f0000e0f30000e33e000049
:101064007a530000b13e00008fdf00007b3e000099
:1010740029790000153e0000153c0000453d0000a4
:10108400416200003bbd00006059000009be000041
:1010940024b900005cbe00006bd4000093be0000c5
:1010a4009c8a0000b4be00005a120000d0be0000aa
:1010b4009f1f0000e6be00002b870000f6be000064
:1010c400e89f000000bf0000ec2f000003bf0000f9
:1010d400280f000003bf00002b6a000000bf0000bf
:1010e40007f00000f6be0000a0fd0000e8be00000e
:1010f4000a9d0000d7be00009a7c0000c3be000019
:10110400ab5b0000adbe0000ecfa000095be000031
:101114006b4800007cbe0000093300004dbe000097
:101124000d37000020be000039620000edbd000054
:10113400a7ce0000a3bd000031d200004bbd0000cb
:101144008e230000d6bc0000b6e0000020bc0000e6
:10115400acc50000a7ba0000c29900004aba00005a
:101164009231000008bc00005df80000c1bc000022
:10117400b41e00003ebd0000645a00009bbd000088
:10118400e2920000e3bd000011c700001abe000097
:10119400ec69000047be00007f4d000076be0000f1
:1011a400c5fe000092be0000bc790000aabe00008b
:1011b400c8cd0000c0be0000ef380000d5be00005e
:1011c400d2fb0000e6be000080650000f5be000012
:1011d4006fd30000ffbe0000b1dc000002bf0000be
:1011e400b150000003bf00002619000001bf000039
:1011f400d72f0000f8be0000cc7f0000e8be00003e
:1012040018260000d3be00000e4a0000b8be00003d
:101214001635000098be0000739d000066be0000f5
:10122400f73b000014be00007b3300006abd0000e1
:101234005fee0000133d000017bc0000083e0000f4
:101244004df300006e3e000036e50000aa3e0000ab
:101254009fab0000dd3e00008b6c0000073f0000e8
:1012640090bd00001e3f000037540000343f0000d2
:10127400b5c30000473f000076a60000583f0000b9
:10128400a9a40000663f000047720000713f0000ff
:101294005fd20000783f0000569a00007c3f0000b7
:1012a400a7ae00007c3f000074070000793f0000f7
:1012b400ebad0000713f000087bf0000663f0000f7
:1012c40034680000583f000029e80000463f000051
:1012d400158c0000323f000060b000001b3f00008e
:1012e40094bc0000023f000028440000d03e0000ef
:1012f400eab20000983e00008d7f00003f3e0000ef
:101304004ab30000993d0000b345000012bd00003f
:1013140096cf000012be0000430400007cbe000013
:10132400643b0000afbe0000ba490000dcbe000010
:10133400c03e000002bf0000a5a0000013bf0000d3
:101344003810000022bf0000e16200002dbf000041
:10135400b77f000035bf0000dd5e00003abf00002b
:10136400280a00003cbf0000d09b00003abf0000e8
:10137400143f000036bf0000f92c00002fbf00000e
:1013840047ac000025bf0000910f00001abf000009
:10139400eeb100000cbf00004aef0000fbbe0000ed
:1013a40082900000dcbe00008b1a0000bcbe00006e
:1013b4000b6300009bbe0000936f000076be00002c
:1013c40066bd000038be0000a0320000febd000073
:1013d400c39b000095bd000032900000e7bc0000f4
:1013e4009d360000193c00002b4f0000203d0000fa
:1013f40086740000783d0000cbf50000963d0000a7
:10140400266f0000a03d000082360000993d0000d8
:101414002a550000823d0000e88200003a3d0000a9
:101424001f660000af3c00000dcb0000fabb0000bb
:1014340038a0000025bd000045d600009abd00007c
:101444002fdd0000e4bd000045f5000016be0000dd
:101454004087000039be00000dab000058be0000fc
:101464000404000073be00003ca5000083be00001d
:10147400062f00008abe00007aa500008cbe000082
:101484004ca600008abe000052ed000083be00009e
:1014940015a9000070be0000f0a200004fbe0000bd
:1014a40043ff000024be00008d5d0000e2bd00008b
:1014b400e78d000053bd00004f9500006f3c000015
:1014c400b6860000b23d00001ea70000283e0000c2
:1014d40082a800007b3e0000ec510000a83e000002
:1014e40049f40000d23e0000aad40000fc3e0000f3
:1014f4007f870000123f000042600000253f00008b
:1015040083860000363f000060930000453f0000e2
:10151400d0270000523f000099f000005b3f00001c
:10152400f4a60000623f00002b130000663f000099
:101534009e0c0000663f0000037d0000623f000037
:101544001c5f00005b3f00005dbf0000503f0000d7
:1015540094bc0000423f000040870000313f00007f
:10156400f25e00001d3f000046940000063f0000ac
:10157400390b0000db3e000050360000a53e0000a1
:1015840042260000593e000054550000c83d0000aa
:10159400de39000094bc0000a7e8000008be00008b
:1015a400d0f200007cbe0000ac560000b6be0000c5
:1015b400a4190000ebbe0000bff100000dbf000045
:1015c400e0f3000023bf0000c538000037bf00006f
:1015d4001075000047bf0000c66d000054bf000036
:1015e4004df800005dbf000016fb000063bf000063
:1015f400eb6e000066bf0000f25e000065bf0000f5
:1016040058e7000060bf0000ad34000059bf00007f
:10161400348500004ebf0000ab21000041bf000034
:101624003563000031bf000026aa00001fbf000080
:10163400036000000cbf0000b8e90000efbe00002a
:1016440024b40000c5be0000ab0400009bbe000033
:10165400bb7e000061be0000c17300000fbe00002d
:1016640076fd000082bd00007a9a0000dd3b000098
:101674009c150000913d000095480000023e0000ca
:101684006a4d0000333e0000dff800005a3e0000bf
:10169400d4f10000783e00001a8b0000863e000062
:1016a40058c500008b3e0000d65600008c3e00005a
:1016b400868f0000883e000045d80000803e000070
:1016c400aa6500006b3e0000446900004f3e000024
:1016d400840d00002f3e0000edb600000b3e00001c
:1016e40037c30000cd3d00005f090000843d0000c9
:1016f400a7ec0000f43c000076510000f4ba0000ae
:1017040058c70000f1bc0000a375000054bd0000e0
:10171400341000008bbd0000d33300009dbd0000d9
:10172400ca4e00009fbd0000177e000090bd00005f
:1017340097ae000060bd0000ffb20000fbbc0000db
:10174400b1890000cc3a00009df50000293d00005d
:10175400a7ec0000b43d00003f8c0000103e0000e8
:10176400789700004b3e0000a7220000853e000051
:10177400718f0000a53e000090490000c63e0000a5
:101784004e7f0000e63e000029ae0000023f00004c
:10179400cd060000113f0000ace200001d3f000038
:1017a400cae00000283f00005da70000313f0000b0
:1017b40068e80000373f0000136100003b3f000071
:1017c400a1db00003b3f0000b5320000393f0000c0
:1017d40059510000333f0000f43200002a3f00005a
:1017e400fce300001d3f0000e48300000e3f000006
:1017f400ba830000f83e000041bc0000ce3e000069
:10180400554d0000a03e00008fdf00005b3e00004d
:10181400ffcf0000e13d0000b3f10000bb3a00003f
:101824007e180000e1bd0000a52c000063be00008e
:1018340093350000aabe00009a250000e1be000016
:10184400aeb600000abf0000280f000023bf00004e
:101854001f2e000039bf00004faf00004cbf000036
:10186400e73a00005dbf00007f8700006abf000008
:10187400bc5c000074bf0000539100007abf0000fc
:10188400fe0e00007dbf000024d100007bbf0000dd
:10189400dae6000076bf0000936f00006ebf000020
:1018a400789c000062bf000068ae000053bf0000d7
:1018b400a9f6000041bf000053d000002dbf000076
:1018c400f0a2000017bf0000c6bf0000ffbe00006a
:1018d400f4f80000cdbe000036e500009abe00001a
:1018e400aef000004ebe000089980000d2bd00009a
:1018f40045930000d5bb00005e680000ae3d0000cb
:101904001ec400002e3e00003e9600007e3e0000f5
:101914008cbe0000a23e0000323d0000c13e00002b
:1019240062670000da3e000082ff0000ed3e000026
:101934000cea0000fb3e000077150000023f0000a7
:1019440015740000033f00009c330000023f0000b8
:10195400670a0000fd3e00003c4e0000f13e00001e
:10196400d2c60000e13e0000ef1b0000cf3e0000a5
:10197400c5030000ba3e0000b03d0000a33e0000d5
:101984003a9200008b3e000061890000673e00002f
:10199400be300000393e00002a8c00000d3e0000dd
:1019a400bce80000cb3d000040300000873d000053
:1019b400d20000001e3d0000bb0b0000943c000060
:1019c400d9610000a73b00004dae0000853800003f
:1019d400f25000004a3b00008dd50000663c000038
:1019e400b8210000063d00003ba900006f3d000047
:1019f40068950000b93d0000452f0000033e00003b
:101a040029ed00002d3e00003db800005b3e0000c3
:101a140060930000853e00005c5a00009d3e00007b
:101a2400766c0000b43e000075020000ca3e00005f
:101a3400ab5b0000dd3e0000a9bc0000ed3e0000f1
:101a44000b7b0000fa3e0000637f0000013f0000b2
:101a540013610000033f0000d1ae0000023f00000c
:101a6400e4830000fe3e00000c070000f23e00008c
:101a7400fdd90000df3e0000b2110000c83e0000a6
:101a840097e20000aa3e00002fa30000883e000059
:101a940081950000433e000060b00000db3d000083
:101aa4007d4100008b3c0000c05b0000a0bd000035
:101ab400de3c000035be000044fa00008dbe00008c
:101ac400e23b0000c1be0000df6c0000f3be00007a
:101ad40060cd000011bf00007b6b000028bf000038
:101ae400111e00003dbf00009e7b00004fbf0000a0
:101af400742400005fbf000000c600006bbf00003c
:101b0400ca1a000075bf000014ed00007abf00007f
:101b1400d21800007dbf0000058b00007bbf0000d1
:101b2400aa43000076bf00001d5500006dbf0000f1
:101b340019e2000060bf00000421000051bf000052
:101b4400045600003ebf00004dd6000028bf000030
:101b5400de02000011bf0000b08f0000eebe0000e6
:101b6400c6330000b8be0000d0d000007fbe000025
:101b7400bc5700000dbe0000edf00000d7bc000013
:101b84008f8b0000aa3d000037890000413e000011
:101b94005dfe0000933e00009a7c0000c33e0000fe
:101ba400f67f0000ee3e0000a53100000a3f000071
:101bb400ca4f00001a3f00004d670000273f000095
:101bc400ca540000313f000035070000383f0000d0
:101bd400417d00003b3f000047c900003b3f00003f
:101be4005a0d0000393f000053790000333f0000d4
:101bf4006a4d00002b3f0000a6d50000203f0000e6
:101c04002f690000143f000066660000063f0000d4
:101c14005e680000ee3e00002a740000ce3e000024
:101c240026c70000ad3e0000593400008d3e000080
:101c3400390b00005b3e00009df400001e3e0000d6
:101c440008030000cf3d00000a9d0000573d00003e
:101c54008e780000323c000071720000bfbc0000ae
:101c64007f1600004bbd0000410e00008abd00003d
:101c7400d33300009dbd0000fa4700009fbd000063
:101c8400520f000091bd0000cf87000067bd000027
:101c94009c18000012bd0000146a000017bc00006c
:101ca40011ff0000b03c0000e0bd0000633d0000f7
:101cb400c4210000bb3d0000bd8c0000023e0000ba
:101cc40066660000263e000037a60000473e00007e
:101cd40090da0000643e000046b100007c3e000043
:101ce40083fa0000863e000047c900008b3e0000d6
:101cf400d65600008c3e0000fd4d0000883e0000da
:101d0400c0ec00007e3e0000906b0000633e0000cb
:101d1400242800003e3e0000227100000f3e000017
:101d2400f0a20000af3d00001daf0000c03c000069
:101d340028f400003abd0000addd0000f6bd00004f
:101d44005f9800004cbe00003255000090be0000b9
:101d54006dff0000babe00001f680000e5be000071
:101d64004356000007bf0000a1f300001abf0000a3
:101d7400711b00002dbf0000e16200003dbf0000a8
:101d8400516600004bbf000053cb000056bf00005b
:101d9400e94300005fbf00008290000064bf0000c0
:101da400a67e000066bf000039ee000064bf00009c
:101db40029d000005fbf00001327000057bf0000b8
:101dc4004a0700004bbf0000789700003bbf0000ab
:101dd400520f000029bf00009eb5000013bf000091
:101de400bec10000f7be000064e90000c3be0000ed
:101df40012bd00008cbe0000ac56000026be0000e0
:101e04001971000041bd000065e400008c3d000034
:101e1400200c00003c3e00001d380000973e0000ee
:101e240030d80000cd3e0000857c0000003f00005b
:101e3400dae10000173f00001bbb00002c3f00004c
:101e44000bb500003e3f0000db8a00004d3f000060
:101e54001c080000593f00006c090000613f0000ad
:101e6400bf7d0000653f0000bf650000663f0000c5
:101e7400c3d30000633f000081ec00005d3f00001d
:101e840015e30000543f000059fa0000483f0000e9
:101e9400388400003a3f0000cbdb0000293f0000fb
:101ea400fe650000173f00009b8f0000033f000009
:101eb400b8920000dd3e0000e10b0000b33e0000dc
:101ec40011700000883e0000f83600003d3e00001e
:101ed400df890000d93d0000cf480000043d000028
:101ee4006a14000012bd000038a00000c5bd000047
:101ef400fed4000018be000099d3000045be0000c7
:101f0400a549000069be0000cc7a000081be000033
:101f14006a6a000089be0000219300008cbe0000a4
:101f2400db3300008bbe00006aa4000085be000005
:101f340028b8000078be0000f3c800005fbe0000af
:101f440067b8000041be00002ae300001fbe000085
:101f54003c6b0000f7bd0000d5590000adbd00008a
:101f6400e318000049bd00006c5c00007fbc000069
:101f7400a01700006e3c00003cdb0000233d000085
:101f840092940000743d000043e40000943d00007e
:101f94005f280000a03d000095f200009a3d00007b
:101fa40042930000843d000000ad0000393d000074
:101fb400b6140000903c0000336c000094bc000098
:101fc400c89500007abd000024d60000e2bd0000e0
:101fd40095d4000029be0000b1a2000066be000036
:101fe400c139000093be000087e10000b3be0000c9
:101ff400e17a0000d4be000069350000f4be0000a0
:102004006d1c000009bf00000edb000016bf0000bd
:1020140002f1000022bf0000e20100002dbf000019
:102024002cb7000034bf000021c8000039bf0000f5
:10203400cff700003bbf00005d1600003bbf00006f
:10204400f706000037bf000088ba00002fbf000069
:102054005934000025bf00006189000017bf00004b
:10206400a4df000006bf00005ddc0000e6be000047
:1020740090f70000babe000056b700008abe000008
:10208400d6c500002dbe00003e3e000081bd00000c
:1020940080b70000403d00000fb40000223e000065
:1020a400aa7d00008a3e0000a27f0000c23e00001c
:1020b400f6620000f83e0000959a0000153f00000b
:1020c400210700002d3f0000f20c0000423f0000f9
:1020d400014d0000543f000064750000633f0000a0
:1020e400e94300006f3f0000c2860000773f000014
:1020f400d21d00007c3f00005df900007c3f000021
:10210400541d00007a3f0000a5a00000733f0000aa
:10211400a4aa0000693f0000047300005c3f0000b3
:10212400dd4100004c3f0000b16d0000393f00006c
:102134007e570000243f0000be6a00000d3f0000ef
:1021440093350000ea3e0000cfbd0000b73e00001a
:10215400e9650000843e0000183e0000223e0000b5
:10216400dacb0000763d0000ce3500000cbd000047
:10217400e5b30000fcbd000021b0000052be000029
:10218400186000008fbe000031b60000b0be000031
:10219400a3e90000ccbe00007aaa0000e3be000060
:1021a40036c80000f4be0000861b000000bf00001b
:1021b4000404000003bf0000ca37000003bf00008e
:1021c400cae0000000bf000083690000f8be000000
:1021d40052f20000eabe00005af50000d9be000029
:1021e4008e230000c6be00005c380000b0be0000b4
:1021f40073f4000098be0000ab21000081be000013
:10220400a306000053be000085b1000025be0000f7
:1022140043560000f7bd000093710000acbd000000
:10222400aef1000059bd0000ea3f0000ebbc000025
:10223400969400003bbc00002fdf0000faba0000b7
:102244006ff70000cdb9000089120000e3bb000065
:102254008bc20000aebc00006adb000030bd000091
:10226400e316000093bd00007ced0000d9bd000022
:102274006e69000015be0000aca8000041be00005d
:10228400d157000070be00009f02000090be000005
:102294008e920000a7be00001a170000bebe000008
:1022a40058ca0000d2be0000eaec0000e4be000000
:1022b4003ecb0000f3be00007fc10000febe000064
:1022c400be9f000002bf0000f966000003bf0000cb
:1022d4004087000001bf0000ecc00000f9be000010
:1022e40011c70000eabe00003e220000d6be000076
:1022f40088f40000bbbe0000178200009cbe0000f2
:10230400af5f000070be0000b80100001fbe0000f7
:102314002a5300008cbd00008ac70000c53c0000a1
:1023240001130000f83d00004a0c0000623e00006a
:1023340054740000a43e0000205e0000d73e00005c
:10234400e9650000043f00001de600001b3f00009b
:1023540006bb0000313f000092740000453f0000be
:1023640025af0000563f0000560e0000653f0000f8
:1023740020460000703f000098170000783f0000de
:10238400375400007c3f000076e000007c3f0000f2
:1023940031b10000793f00009fcd0000723f000082
:1023a4004c4f0000683f0000cc6200005a3f000020
:1023b40067440000493f00007d3f0000353f0000b6
:1023c40025af00001e3f00004df80000053f00004f
:1023d400a8180000d73e000005c500009f3e00007d
:1023e400ace200004d3e0000876e0000b63d0000e8
:1023f40052b70000b3bc00005036000005be000018
:102404001c2500006fbe000067440000a9be000048
:10241400ebe20000d6be000088ba0000ffbe000058
:10242400419a000011bf00007b6b000020bf000038
:10243400b82300002cbf0000c1a8000034bf000076
:1024440074ef000039bf0000fc0000003cbf000036
:1024540049f400003abf0000a6f2000036bf0000b5
:10246400c633000030bf000022fd000026bf00007c
:10247400569f00001bbf0000d17400000ebf000077
:1024840016c10000ffbe00001d940000e0be000065
:10249400bd350000c0be00004e7a00009fbe0000a3
:1024a4006f6400007ebe00006649000040be00006c
:1024b4008412000006be00001b130000a2bd000031
:1024c400e143000009bd000025620000a53b0000b7
:1024d40041d30000123d0000c34800006f3d0000de
:1024e400ce8e0000943d0000172d0000a03d00009a
:1024f400430100009b3d00005c040000863d000099
:102504005f420000453d0000f59e0000ca3c00000b
:10251400ed5b000077bb00008f1d000014bd0000c0
:1025240006a0000091bd0000eb900000dbbd0000a0
:10253400d673000012be00001557000035be00001f
:10254400f4fd000054be0000ef03000070be000064
:102554005c8f000082be00005b94000089be000016
:10256400219300008cbe00000f2800008bbe0000e9
:10257400c009000085be0000821c000074be00007b
:10258400f050000054be000059dd00002abe0000d7
:10259400715a0000f0bd0000b894000073bd000043
:1025a400ce6d0000c23b0000294100009f3d0000a9
:1025b4002a7400001e3e00002f170000713e000028
:1025c40099f50000a23e0000d39f0000cd3e00001c
:1025d400e8a40000f73e00000a110000103f0000cc
:1025e40055180000233f0000e17a0000343f00004a
:1025f4007dd00000433f0000d0b80000503f0000f1
:10260400f8df00005a3f00008ffc0000613f00002b
:10261400e9d40000653f0000143f0000663f00005d
:1026240081210000633f0000a37500005c3f0000af
:102634004e450000523f000058ad0000443f0000ea
:10264400f9da0000333f0000c30d0000203f000012
:102654000c930000093f0000758e0000e13e00006d
:1026640007250000ac3e00005a9e0000673e0000b3
:102674004df80000e53d00005098000066bb0000e6
:10268400d4430000f4bd00004f9200006ebe000071
:10269400ff780000afbe000000ae0000e4be000002
:1026a400650100000bbf00007155000021bf000050
:1026b40016f6000034bf0000f697000045bf000086
:1026c400cefc000052bf000066f700005cbf0000b3
:1026d400376c000063bf00001552000066bf0000a5
:1026e40085b1000065bf000065a5000061bf000062
:1026f400a85700005abf0000ef03000050bf0000bd
:10270400faf2000042bf00004a7b000033bf000021
:10271400e7fb000021bf000055de00000ebf0000f3
:10272400a7220000f5be0000890c0000cbbe00000b
:10273400af5f0000a0be0000540000006cbe0000ab
:102744001d8f000019be00000c03000096bd0000a0
:10275400c3a30000e8ba0000006f0000813d000040
:1027640022fd0000f63d000061a600002d3e0000a1
:102774002b870000563e000013b80000753e000091
:10278400828b0000853e00001c5f00008b3e000031
:10279400668300008c3e000018430000893e000060
:1027a4001d030000823e0000d38700006e3e00003f
:1027b40094300000533e000009500000333e0000f6
:1027c40078450000103e00007c0f0000d73d00005b
:1027d400f03000008d3d000006b900000b3d000004
:1027e400f31d0000fc3a000012880000d7bc000072
:1027f400384e00004abd000084b7000087bd0000c9
:10280400f7c700009bbd0000fdf400009fbd000061
:10281400e44c000093bd0000f8a900006abd00006c
:10282400c91f00000cbd0000b6b400003fbb00008f
:10283400d1cc0000133d0000562a0000a83d000042
:1028440036760000093e0000e0f30000433e00003d
:102854005c200000813e00008e750000a13e000057
:10286400fd300000c23e000041820000e23e000054
:1028740029cb0000003f00006e4c00000f3f000019
:10288400645d00001c3f0000639c0000273f0000c3
:10289400a3af0000303f000039450000373f00007f
:1028a4004c1a00003b3f0000cff700003b3f000004
:1028b40020b50000393f0000f73b0000343f000022
:1028c4001f8500002b3f0000bb9b00001f3f000042
:1028d400fa9b0000103f000027660000fd3e000048
:1028e400e63f0000d43e00003a5d0000a63e000032
:1028f40008e60000683e0000363c0000fd3d000094
:102904009b3b00007a3c0000ad500000c4bd0000b9
:1029140063d1000054be0000a52c0000a3be00003b
:10292400d4600000dabe00007385000007bf000019
:102934007e1d000020bf0000ca89000036bf0000d1
:102944001b6400004abf0000505300005bbf00003e
:102954000b0c000069bf0000a852000073bf000008
:10296400dffd000079bf000077f300007cbf0000aa
:102974008c2d00007cbf0000e9b7000077bf000089
:102984000cb000006fbf0000cc45000064bf000025
:102994006bb7000055bf00003754000044bf00006f
:1029a4009f76000030bf0000e08400001abf0000e2
:1029b400bbed000002bf0000a04f0000d4be000029
:1029c400b8580000a1be000074d200005bbe000035
:1029d40002d90000ebbd00006ea2000096bc00000e
:1029e400d1770000973d0000ed2a0000243e00004e
:1029f40070080000753e0000618e00009e3e0000dd
:102a04002db20000bd3e0000008c0000d73e000047
:102a140002d90000eb3e00000b7b0000fa3e0000f0
:102a240067b80000013f0000876d0000033f00000d
:102a3400fa7e0000023f00008f360000fe3e0000d8
:102a440015000000f33e000064e90000e33e0000ce
:102a5400419a0000d13e0000f0c40000bc3e0000da
:102a64001b2a0000a63e0000b08f00008e3e00002e
:102a7400d17900006d3e0000e2e400003e3e00001b
:102a8400d4d40000123e0000d7510000d53d000010
:102a9400e02a00008f3d0000569c00002a3d000003
:102aa400a6d40000a53c0000c2a60000ce3b000056
:102ab400cfaa000085390000c8780000143b00004c
:102ac400dc2d0000493c0000c1c60000f53c0000bc
:102ad4005bea0000603d0000cdad0000b03d0000a9
:102ae400d3300000fc3d0000b75d0000283e00002c
:102af40027da0000553e00009a940000823e000050
:102b0400736300009a3e0000a2970000b13e0000eb
:102b14009d680000c73e000016130000db3e000065
:102b240040de0000eb3e0000761a0000f93e000093
:102b340087160000013f000084470000033f0000a7
:102b44001ceb0000023f0000bcae0000ff3e000092
:102b540014e80000f33e000086720000e23e00002c
:102b64002d5b0000cb3e000028d50000ae3e0000e7
:102b7400093300008d3e0000b3cd00004d3e00003f
:102b84001d030000f23d00006f9e0000ea3c0000bf
:102b94004d67000087bd0000d36a000028be000016
:102ba4002384000087be00007cd50000babe00006c
:102bb400f8360000edbe0000bed900000ebf0000d4
:102bc400efac000025bf000005a300003abf0000e1
:102bd4002f5100004dbf00006d5600005dbf000086
:102be4008d5d00006abf0000211f000074bf00005b
:102bf400c36400007abf0000210700007dbf00000d
:102c040041f100007bbf00002d21000077bf0000d0
:102c1400a0a600006ebf0000b6a1000062bf0000c5
:102c24008447000053bf00003cda000040bf0000ae
:102c340071ac00002bbf0000d21d000014bf0000c7
:102c4400b1330000f5be0000bb270000bfbe00008a
:102c5400dd0c000087be00001ac000001bbe00008f
:102c6400f418000025bd00000fb800008e3d0000e0
:102c740058390000343e000098c000008d3e00002a
:102c8400e8c10000bd3e00009e5e0000e93e000079
:102c94007bf70000073f000058730000183f000056
:102ca40078ee0000253f0000d9420000303f0000cc
:102cb400795d0000373f0000103b00003b3f0000ff
:102cc4005beb00003b3f0000ce8d0000393f00006d
:102cd4003f520000343f0000a37500002c3f000069
:102ce40057430000223f00008c100000163f0000f4
:102cf400a33b0000083f000011530000f23e000017
:102d04002f860000d23e0000f7e40000b13e000030
:102d140070420000913e0000c3d80000623e0000f3
:102d2400f1460000263e000025580000dc3d00006e
:102d3400871800006f3d0000e2ea0000803c0000bc
:102d440090c000009fbc0000c87900003fbd000097
:102d5400376d000086bd00000ebf00009bbd000063
:102d640039ef00009fbd0000a7b3000093bd000031
:102d7400696f000070bd0000b72900001ebd00008f
:102d84005628000052bc00005ea100008f3c0000e9
:102d94006ebe0000513d000080d50000b13d000032
:102da4002ee20000fb3d00006c040000223e000007
:102db4007aaa0000433e00003f740000613e000018
:102dc400520a00007a3e0000c2170000863e00004e
:102dd400496800008b3e0000b68400008c3e000071
:102de40099120000893e0000f5d60000803e0000e4
:102df400ec690000673e0000745e0000433e000082
:102e0400abcf0000153e000090870000be3d0000df
:102e1400a8fe0000013d0000cefd000015bd00002d
:102e2400d00f0000e3bd00003b36000042be0000ae
:102e3400bd0000008bbe00001aa30000b5be000058
:102e4400c5200000e0be00007dcb000004bf0000f0
:102e5400868f000018bf00006cec00002abf000041
:102e6400647500003bbf0000d2c6000049bf0000eb
:102e7400f584000055bf0000315f00005ebf000014
:102e8400a514000064bf0000e370000066bf0000ea
:102e94007e52000065bf00001ea7000060bf000056
:102ea400c16e000058bf00006abc00004cbf0000a7
:102eb400ccb400003dbf0000548c00002bbf0000c8
:102ec4007b88000016bf0000e3fc0000fdbe00008c
:102ed400be9f0000cabe0000ccd1000093be00001b
:102ee400f4fd000034be0000e10900007dbd0000d7
:102ef400653800005e3d0000b56c00002d3e00000a
:102f0400f1290000903e000063280000c73e000045
:102f1400c1c50000fa3e00003c140000153f00004b
:102f2400fe4300002a3f0000459e00003c3f000095
:102f340048dc00004b3f0000fcc60000573f000087
:102f4400ac390000603f0000b0200000653f000085
:102f5400107a0000663f00002e560000643f000017
:102f64001fd700005e3f00005a2f0000563f0000ac
:102f7400179f00004a3f0000a37500003c3f00007b
:102f8400bf0e00002c3f0000b8cc0000193f000029
:102f9400581c0000063f0000b1dc0000e23e0000c7
:102fa40034680000b83e0000e8c100008d3e000017
:102fb400de930000473e000002480000ed3d0000a3
:102fc400f90f0000293d0000c7490000e1bc0000e2
:102fd40094db0000b6bd0000ce88000012be0000e5
:102fe40042b2000040be0000a25d000065be0000c9
:102ff4006423000080be0000fbae000088be000019
:10300400bd6f00008cbe0000b79c00008bbe0000aa
:10301400088f000086be0000376c00007bbe0000f5
:10302400c139000063be000002bc000045be0000c0
:10303400624a000024be0000e353000000be00000a
:1030440001a40000b6bd0000a60900005bbd00009d
:103054007bd70000a0bc0000a7e90000333c0000bf
:1030640038f70000173d000071e200006b3d0000de
:103074004a5d0000923d00001ba100009f3d00003e
:10308400e88800009c3d000060560000883d000078
:10309400d28c0000453d000084460000b03c000096
:1030a4001e8c000058bc0000d2e4000062bd000089
:1030b4000d6c0000d5bd0000637a000022be000044
:1030c400eacf00005ebe00000b2900008fbe0000a6
:1030d400b5c30000afbe00007b6b0000d0be000093
:1030e400554d0000f0be0000cf49000007bf0000ae
:1030f4005036000015bf00004087000021bf0000cb
:1031040098dd00002bbf00007ee3000033bf000009
:10311400ec4c000039bf0000a1db00003bbf000005
:103124001c5f00003bbf00009ab6000037bf0000e0
:103134005fd2000030bf000014b3000026bf0000bf
:10314400ba6b000019bf0000b41f000009bf0000e3
:1031540031080000ecbe00006fbb0000c0be0000e0
:10316400f8fc000090be0000322000003bbe0000ce
:103174006d2000009dbd000055880000073d000043
:10318400514e0000143e0000d55b0000833e000059
:103194009b8f0000bb3e000082c50000f13e000092
:1031a40090830000123f00003b3600002a3f0000dd
:1031b4009f8e00003f3f0000672c0000523f00003c
:1031c40056bc0000613f00009cf900006d3f000008
:1031d40075b00000763f000023be00007b3f000076
:1031e400451200007d3f0000daac00007a3f000089
:1031f400dba20000743f0000a41900006b3f000034
:10320400f14600005e3f00008b7100004e3f00005d
:10321400abec00003b3f000050190000273f0000ca
:10322400a6610000103f00001a6e0000f03e00008e
:1032340085250000be3e00000adc00008a3e000036
:10324400e50a00002f3e0000384c0000943d0000c9
:1032540074600000b9bc00005f7b0000e6bd0000a4
:10326400a987000048be00006ad900008abe000099
:10327400cdcc0000acbe0000a4aa0000c9be000072
:10328400bd1d0000e1be0000faf20000f2be000025
:10329400b1160000ffbe0000f7cc000002bf000022
:1032a400ef55000003bf0000944d000001bf000073
:1032b40046d30000f9be000049d70000ecbe000070
:1032c4002d430000dcbe0000a4c20000c8be000004
:1032d400d00f0000b3be0000abec00009bbe0000aa
:1032e4007120000084be000019e2000058be0000f6
:1032f400b83b00002bbe000080b7000000be0000f9
:1033040028430000b5bd00002c7d000068bd00000e
:10331400ada5000000bd0000d044000058bc000072
:10332400054a00002fbb00008bf2000012b9000018
:10333400a3d40000b9bb0000178200009cbc0000ad
:103344005308000024bd0000250400008bbd0000cc
:10335400ca6c0000d0bd0000e718000010be0000d9
:103364004aef00003bbe0000c36400006abe0000d8
:10337400da0300008dbe000072a70000a4be0000a6
:103384008e580000bbbe000044510000d0be0000b7
:1033940096cf0000e2be000042210000f2be000011
:1033a400349d0000fdbe0000f758000002bf00007d
:1033b4001d72000003bf00008ee9000001bf000081
:1033c400b83b0000fbbe00005df90000ecbe00004d
:1033d4001c080000d9be0000098a0000bfbe00001e
:1033e4006fbb0000a0be0000d6ff000079be000045
:1033f40005a8000029be0000d55b0000a3bd0000a5
:1034040016860000483c00000cc80000de3d0000a9
:10341400e5270000553e0000210200009e3e00000a
:10342400c4080000d13e0000085a0000013f00001b
:103434001c080000193f0000a81800002f3f0000de
:10344400431c0000433f000060ab0000543f0000f9
:10345400906b0000633f0000350c00006f3f0000dc
:10346400be4d0000773f0000acff00007b3f000032
:10347400320300007d3f0000dc4b00007a3f000077
:1034840040de0000733f0000f6d10000693f0000f9
:10349400f05000005c3f0000d99400004b3f000056
:1034a40010e90000373f0000bea40000213f0000e7
:1034b400cf2c0000093f0000ace20000dd3e00001c
:1034c400e1d10000a63e00008e4000005c3e0000fa
:1034d40094300000d33d0000c009000005bc00008a
:1034e40023100000efbd0000bf2b000062be0000ef
:1034f400603c0000a3be000073680000d1be000061
:1035040097e20000fabe0000128800000fbf00001e
:10351400a1b900001ebf000073d700002abf00003d
:1035240009c4000033bf00009773000039bf0000d6
:10353400b3ea00003bbf00004f4000003bbf000067
:10354400139b000037bf0000be30000031bf0000f5
:103554007845000028bf0000e52700001dbf0000db
:10356400cf31000010bf000082c5000001bf000081
:1035740079920000e4be0000a04f0000c4be000029
:1035840031940000a3be00003333000083be00006a
:1035940021e5000047be0000111e00000dbe000022
:1035a4004dbd0000aebd00000d3400001fbd000085
:1035b4003c920000223a000007cf0000043d0000c6
:1035c4008a910000653d000015e20000913d000075
:1035d40065a700009f3d00000d8c00009c3d00008d
:1035e400e1790000893d0000139b00004f3d00007d
:1035f40006300000e53c0000c390000036380000af
:10360400e3c5000002bd00003673000088bd000061
:10361400683f0000d2bd000089ea00000dbe000032
:103624006d1c000031be0000813e000051be000050
:1036340042ec00006cbe0000126b000081be000072
:10364400a7e8000088be00006e6e00008cbe00007b
:10365400299600008bbe00008412000086be000084
:103664009d68000077be00009dd7000058be000092
:10367400bc96000030be0000ed0d0000febd000051
:10368400608f000089bd000069f000002dbb0000c0
:103694009a2600008c3d0000f0500000143e00000b
:1036a40058900000663e0000959a00009d3e000080
:1036b400bf480000c83e0000e76f0000f23e000073
:1036c400af9400000d3f0000dac90000203f000065
:1036d400ba660000323f0000c5030000423f00000c
:1036e400533f00004f3f0000e3c20000593f000079
:1036f40067440000613f0000e3880000653f00006c
:1037040020630000663f000095b70000633f00009f
:10371400bf7d00005d3f00007bbd0000533f000003
:1037240058900000463f0000e6220000363f0000ab
:1037340070b10000223f0000fd8700000c3f000034
:10374400f7010000e83e0000f2070000b33e00006d
:1037540019040000763e000021c80000013e00006c
:103764009d2c0000353c0000a0a60000d6bd000042
:10377400b324000060be0000d6900000a8be000084
:1037840051310000debe0000dd07000008bf00006c
:10379400deab00001ebf000044a8000032bf0000e2
:1037a400c1ad000043bf00006b7d000051bf0000ad
:1037b4006de700005bbf000046ce000062bf000062
:1037c400d526000066bf0000fdf6000065bf0000be
:1037d4005856000062bf00002f6e00005bbf00005f
:1037e4002d78000051bf000073ba000044bf0000f0
:1037f400db8a000035bf00001b47000024bf000027
:103804006957000011bf000008550000fabe00000f
:10381400fe600000d0be000002bc0000a5be000097
:10382400698c000076be000034ba000023be00009c
:10383400a0330000a9bd0000ada300002abc000015
:10384400f5120000633d0000302a0000e93d00004d
:10385400a5da0000273e000085eb0000513e000081
:1038640000570000723e000092790000843e000080
:10387400d5e700008a3e0000ed9e00008c3e00006b
:103884009fe50000893e0000da200000833e00002e
:1038940064920000713e000029e80000563e0000da
:1038a400d4820000373e000086c90000143e0000a8
:1038b400fe600000e03d0000fe620000963d000056
:1038c400c42700001d3d0000ca2e0000bd3b0000bf
:1038d400ed9e0000bcbc0000fdbe00003fbd00002a
:1038e4009623000084bd0000261c00009abd000041
:1038f4008e570000a0bd00006fd5000095bd0000ec
:10390400d718000074bd0000c2dd000019bd00001e
:10391400e3d60000eebb0000d3300000fc3c000006
:10392400d49900009b3d000025750000023e000074
:10393400036000003c3e00009d4600007a3e00000b
:10394400ab5b00009d3e0000ca150000be3e0000b7
:1039540045810000de3e000075c80000fd3e000009
:10396400d28c00000d3f00008dd100001a3f0000f2
:103974001e500000263f00006dad00002f3f0000e8
:103984008d970000363f000060c800003a3f0000f9
:10399400890700003c3f0000172b00003a3f00005d
:1039a4007a190000353f00002eca00002c3f0000a9
:1039b4005f460000213f00009ca70000123f00006a
:1039c400ce190000013f0000e2af0000d93e000024
:1039d400145c0000ac3e00004ad20000753e0000ba
:1039e400dd4100000c3e000004200000ee3c00001d
:1039f4003f910000a7bd0000e370000046be000038
:103a04002a1d00009cbe000092910000d3be00005d
:103a1400014d000004bf00004f2300001dbf000043
:103a2400a1db000033bf00001b0d000048bf0000f5
:103a34009e5e000059bf00002c82000067bf00009a
:103a4400d23a000072bf0000575b000079bf00004b
:103a5400dec800007cbf00003a7a00007cbf000092
:103a6400e679000078bf0000c1e2000070bf0000ea
:103a740004e2000065bf0000a2b4000057bf0000cc
:103a8400f0a7000046bf00006614000033bf00002a
:103a94009a5f00001dbf0000fdf6000005bf000096
:103aa4000ea10000dabe00009bc90000a7be000002
:103ab40078b9000068be0000d999000002be000079
:103ac4006d720000f8bc0000fc550000803d000051
:103ad400e6740000193e00008e5800006b3e0000a2
:103ae4008c4a00009a3e000030120000ba3e0000ea
:103af40007990000d43e0000399c0000e93e000014
:103b040073f40000f83e00008b4f0000013f0000fa
:103b14007d5c0000033f000083c00000023f000002
:103b2400ad510000ff3e0000e4a00000f43e0000a0
:103b3400dafe0000e53e0000170e0000d43e00004f
:103b44008d7f0000bf3e0000e8130000a93e000086
:103b5400758e0000913e0000df6c0000733e000093
:103b6400e4a00000443e0000382d0000183e000090
:103b740082e70000de3d0000c9560000973d0000ca
:103b840026aa0000373d0000ef920000b83c000078
:103b9400e2000000fa3b000047580000163a00001b
:103ba40086d20000cd3a0000e08500002d3c0000e4
:103bb400f4340000e03c000070960000523d000028
:103bc40056f40000a73d00000e2d0000f23d000059
:103bd40062db0000223e0000ef030000503e0000c4
:103be400aa2b00007f3e00003c6b0000973e0000c3
:103bf40090bd0000ae3e000097c50000c43e00002a
:103c040005c00000d83e00006bf10000e93e000052
:103c1400d6a80000f73e00007fa40000003f00008b
:103c240020240000033f0000431c0000033f000069
:103c3400fe600000003f0000d5b20000f53e000029
:103c440077f30000e43e0000618e0000ce3e0000e9
:103c54000fb40000b23e00008ab00000913e0000a4
:103c640071e60000573e0000170e0000043e0000fd
:103c7400b5a70000243d0000792100005dbd0000cf
:103c8400a5a000001bbe0000020e000081be0000c3
:103c9400766c0000b4be000083fa0000e6be0000ab
:103ca40037e000000bbf00002ee7000022bf000039
:103cb400751f000038bf0000431c00004bbf00000c
:103cc400f27b00005bbf000058e7000068bf000003
:103cd400b515000073bf000060cd000079bf00007f
:103ce4005ce600007cbf0000134900007cbf0000bc
:103cf40045f0000077bf0000b8e900006fbf000086
:103d04003754000064bf00009161000055bf0000fb
:103d1400a852000043bf0000c07800002ebf00007e
:103d2400e830000017bf000097ca0000fbbe000087
:103d340084120000c6be0000132c00008ebe0000da
:103d4400782800002abe0000cd5600005ebd0000a9
:103d54004c8c0000653d000080d40000263e00002d
:103d640069740000873e0000dcf40000b73e0000e8
:103d74004e280000e43e000085b10000053f00002d
:103d84001a8b0000163f00002f690000243f00003a
:103d9400742400002f3f0000a0a60000363f00005e
:103da400c4eb00003a3f0000fc0000003c3f000070
:103db400c50300003a3f0000b0200000353f00007a
:103dc400af9400002d3f00002aa90000233f00000b
:103dd4005bb10000173f0000a20b00000a3f000087
:103de40037370000f63e000046940000d63e00003f
:103df40079010000b63e000076540000953e0000b4
:103e040068b300006a3e000000a900002d3e0000d7
:103e140072dc0000e93d000002800000833d0000e8
:103e2400da8e0000a93c0000e10c00007ebc00001a
:103e3400a852000033bd00006685000082bd00006a
:103e4400140500009abd000069540000a0bd0000e4
:103e54001e1a000096bd0000eae8000078bd0000cc
:103e640072dc000029bd000077db000085bc000087
:103e7400a16500005d3c000072de00003f3d0000d3
:103e8400f38d0000a83d000066a00000f23d000094
:103e9400f69700001d3e0000029f00003f3e000018
:103ea400f4f800005d3e000028490000773e000061
:103eb40096260000853e000040f600008a3e000081
:103ec400ed9e00008c3e00008bc30000893e000084
:103ed400e2230000823e0000f64000006b3e00003a
:103ee400d36a0000483e0000810900001c3e000027
:103ef4002c2b0000cd3d00005d310000233d00006f
:103f0400f2d10000e2bc0000a5660000cfbd0000b5
:103f140033e1000037be000036b0000085be00006b
:103f240078450000b0be00007cd50000dabe000079
:103f3400213c000002bf00008525000016bf0000e0
:103f440089b5000028bf0000637f000039bf00006e
:103f5400d61c000048bf00002332000054bf0000fc
:103f6400056e00005dbf0000058b000063bf00000c
:103f74005c55000066bf000058a8000065bf000043
:103f8400006f000061bf0000aca8000059bf000032
:103f94006f6400004ebf000005c500003fbf000075
:103fa4008bfd00002dbf00008351000019bf0000ed
:103fb4007f13000002bf0000ae470000d1be000026
:103fc400bada00009abe00002098000043be000048
:103fd400e54700009cbd000046980000223d00001b
:103fe40090bd00001e3e0000f90f0000893e000055
:103ff4007b6b0000c03e0000bf820000f43e000066
:10400400213c0000123f000016c10000273f0000c1
:104014000b7b00003a3f0000f31f00004a3f000002
:1040240018780000563f0000815b00005f3f0000ed
:1040340035b50000643f0000f67f0000663f0000d5
:10404400d5ca0000643f00004ab500005f3f00008d
:10405400d26f0000573f0000b03800004c3f000012
:10406400895e00003e3f0000d63900002e3f00006c
:10407400342e00001c3f0000cea50000083f0000c5
:104084006c210000e83e000087c40000bd3e000033
:10409400ad170000933e000040fb0000513e0000bd
:1040a4006c950000003e00009b3700004e3d000070
:1040b4000a8400009dbc0000e1d40000a7bd0000fc
:1040c400ec1700000cbe0000986900003bbe000025
:1040d400ec4c000061be0000a47000007dbe000036
:1040e40033e1000087be0000b03800008cbe000041
:1040f40088f400008bbe00009d68000087be0000ad
:10410400100600007ebe00009695000066be00000a
:1041140043ad000049be00001ea7000028be0000f9
:10412400eaec000004be0000d8f10000bfbd0000ae
:10413400d21800006dbd00009c690000c2bc0000e4
:10414400cd280000f13b0000e1b500000b3d00006c
:1041540037c20000623d0000809900008f3d0000de
:1041640041d700009e3d00007fd900009d3d000026
:104174003dd300008b3d00002fe10000503d0000c6
:10418400fc6d0000cf3c0000802d00000abc000044
:1041940001a300004bbd0000ba320000c8bd0000fe
:1041a4002b3500001bbe00009e07000057be000018
:1041b400431c00008bbe000033a70000abbe000010
:1041c40025580000ccbe0000b35e0000ecbe000029
:1041d400f371000005bf0000ac8b000013bf0000aa
:1041e400a015000020bf000021b000002abf00007d
:1041f400ab04000033bf0000ebc5000038bf000073
:10420400ffb200003bbf0000bf9a00003bbf0000ac
:10421400c959000038bf00001add000031bf00009a
:104224005b25000028bf00009e4100001bbf00006a
:10423400f85300000bbf00000c1f0000f1be00008b
:10424400f46c0000c6be0000df32000097be000020
:10425400f662000048be000026e30000b8bd00007e
:104264003df100009c3c0000f3e50000053e000029
:10427400226c0000783e000007990000b43e000064
:10428400431c0000eb3e0000ae6400000f3f000042
:10429400815b0000273f0000290500003d3f00002e
:1042a40058ff00004f3f000084f500005f3f00000e
:1042b400e4a000006c3f0000bccb0000753f000090
:1042c400095000007b3f0000191c00007d3f0000e6
:1042d400f52d00007b3f00004e970000753f000065
:1042e400897b00006c3f0000130f0000603f00005a
:1042f40014960000503f0000786200003e3f00002a
:1043040046d30000293f000000520000133f000084
:1043140012a00000f63e00004c890000c43e0000dc
:104324002a520000913e00008fdf00003b3e000057
:10433400594f0000ad3d00000c5b000033bc000091
:104344006b0e0000d0bd0000bc3f00003ebe00006c
:10435400143f000086be000070ce0000a8be00001e
:104364005c550000c6be000068790000debe000097
:10437400d5040000f1be00000de00000fdbe000009
:104384006e8b000002bf0000406a000003bf000003
:1043940031b1000001bf0000fe2b0000fbbe000095
:1043a40025af0000eebe000034850000debe000034
:1043b4008e580000cbbe0000b5e00000b5be000082
:1043c400f4e000009ebe00008620000087be0000ce
:1043d4006dc500005ebe000007d3000030be0000c3
:1043e40039d6000005be0000d5410000bebd000066
:1043f4009f73000077bd0000e22100000cbd0000a7
:10440400bff4000076bc0000bc69000069bb00007a
:10441400093e000079b70000a2ad000094bb000083
:10442400323b00008bbc000087a7000017bd0000d2
:10443400bc23000083bd0000c11a0000c7bd0000fa
:104444001bd800000abe00000343000036be000073
:104454009279000064be0000140500008abe0000ca
:10446400b6b90000a1be000075930000b8be0000fc
:10447400b3cd0000cdbe000076a60000e0be000073
:104484008c670000f0be0000e0670000fcbe000086
:104494005b08000002bf00006d73000003bf000052
:1044a4005f41000002bf0000ed9e0000fcbe000062
:1044b400c2120000efbe000002d90000dbbe000003
:1044c40042090000c3be00001ee10000a4be0000bb
:1044d400a5bd000081be00007b31000034be000099
:1044e400a5310000babd00005a3a0000d5390000d9
:1044f400718f0000c53d0000bf480000483e000029
:10450400508d0000973e000079af0000ca3e0000c5
:1045140021930000fc3e00008e230000163f0000a3
:10452400c66d00002c3f000078b90000403f000039
:104534001f9d0000523f0000aebb0000613f000021
:1045440087c400006d3f000079750000763f0000cd
:104554000f9c00007b3f0000db1600007d3f000045
:1045640073d700007a3f000076e00000743f00003b
:10457400dc4600006b3f0000f93100005e3f0000a4
:1045840027da00004d3f00007f8700003a3f00001b
:104594002a910000243f0000c45a00000c3f000090
:1045a40034a20000e43e0000e0d60000ad3e00006e
:1045b400929600006a3e000011fc0000ef3d0000ee
:1045c4009c160000bc3b0000f38e0000d3bd00002d
:1045d4002b18000055be00009e2400009dbe000064
:1045e40051da0000cbbe0000aef50000f5be0000bd
:1045f400166a00000dbf0000fcfb00001cbf000099
:10460400bb7e000029bf0000ddd2000032bf0000e5
:104614009eea000038bf0000f7c700003bbf00005f
:10462400888000003bbf00005c38000038bf0000f9
:10463400e223000032bf0000a184000029bf000073
:1046440097a800001ebf0000e6e8000011bf0000ac
:104654008ba6000003bf0000e78c0000e8be00004a
:10466400e4660000c8be000064af0000a7be0000fe
:104674001d38000087be0000369300004fbe0000c6
:10468400963e000014be0000d4990000bbbd00009b
:104694009e98000035bd00004bb7000080bb0000b1
:1046a400f9840000ec3c0000db4e00005b3d0000a0
:1046b40095ee00008e3d00008bdd00009e3d000065
:1046c4005ad600009d3d000029b400008c3d000036
:1046d400048d0000593d00001e150000ff3c000041
:1046e400d5e20000783b00009c360000e3bc0000eb
:1046f400d3a200007ebd0000feef0000c8bd000094
:10470400ff5b000009be0000aad400002cbe00001c
:10471400546f00004dbe0000fdbc000069be0000e7
:104724005c38000080be0000382d000088be000008
:10473400b03800008cbe0000e9f100008bbe000020
:104744009e07000087be0000658d00007abe000051
:10475400f83600005dbe00006b2b000036be000082
:10476400a1be000005be0000f514000099bd0000c4
:10477400287c000036bc00002a700000723d000056
:10478400104000000a3e00005e1100005c3e000084
:10479400e1400000983e00005af00000c23e0000d4
:1047a40059340000ed3e0000661400000b3f000089
:1047b4002a7400001e3f0000b64a0000303f00008b
:1047c400382d0000403f0000b2ba00004d3f000009
:1047d400029a0000583f0000cc7f0000603f0000b8
:1047e4001b2f0000653f0000c0780000663f0000fa
:1047f400e63f0000643f0000187800005e3f0000c0
:10480400e5270000553f0000e4660000483f000033
:104814005f5e0000383f0000f9490000253f0000ba
:10482400197300000f3f00000e670000ee3e000009
:10483400c2dd0000b93e00000e2d0000823e0000e3
:10484400a0890000103e000033fa0000d13c0000b3
:1048540037fa0000b8bd0000bea4000051be00003d
:10486400e09c0000a1be000037a60000d7be0000f7
:104874008104000005bf0000cff700001bbf00004b
:10488400fd4d000030bf000017b7000041bf00001d
:1048940045f000004fbf0000b0c900005abf00003f
:1048a4009222000062bf000029ed000065bf0000f5
:1048b4000a2e000066bf000087f9000062bf0000f6
:1048c400427800005cbf0000a0e0000052bf00007e
:1048d4001878000046bf0000e691000037bf0000d2
:1048e400c18b000026bf0000e6cb000013bf000010
:1048f400dc800000ffbe000024b40000d5be000030
:1049040055180000abbe00002e90000080be0000d1
:1049140067f200002dbe0000ac8e0000bcbd00009c
:104924000bed00009cbc00003acd0000423d0000ad
:104934009a080000db3d000096e70000213e0000dd
:104944008d2800004d3e00009ace00006e3e00000f
:10495400a8520000833e0000965b00008a3e0000df
:104964001aa800008c3e00006c7800008a3e00000b
:10497400dc2e0000843e0000fd870000743e000031
:10498400c68a00005a3e000022ab00003b3e0000f5
:1049940056480000193e000043ad0000e93d000008
:1049a4006f9d00009f3d000059be00002e3d000099
:1049b40020a700001e3c00001b100000a1bc00004a
:1049c40025cc000034bd00008256000080bd0000ec
:1049d4005e30000098bd00007d760000a0bd0000a0
:1049e4004018000098bd000040fc00007cbd0000a1
:1049f4006a13000027bd000021e400003cbc000055
:104a0400e6b20000d13c0000c03d00008f3d000034
:104a14001b120000f73d0000e0db0000343e000004
:104a240061540000723e0000b7450000993e00004a
:104a340098fa0000b93e00000b7b0000da3e00004b
:104a4400bbf20000f93e0000a8c600000b3f0000c6
:104a5400d93d0000193f0000adfa0000243f0000da
:104a640062a100002e3f000016de0000353f00006a
:104a7400016a00003a3f0000280a00003c3f0000a1
:104a84004b9300003a3f0000e2e90000353f00008c
:104a9400c90200002e3f00008fe40000223f000006
:104aa4001aa80000143f000064750000033f0000d2
:104ab400840d0000df3e0000344b0000b23e0000d5
:104ac400db500000813e0000a6d00000193e00002b
:104ad400d45f00002f3d000034da00008abd0000de
:104ae400c30d000038be00007008000095be000031
:104af400d4b70000ccbe0000020e000001bf0000cd
:104b04009b2000001abf00005322000031bf0000a8
:104b1400f8aa000045bf0000795d000057bf0000ff
:104b240089ea000065bf0000e813000071bf0000bf
:104b3400bda9000078bf0000328f00007cbf0000d8
:104b44007cb800007cbf0000772d000079bf000016
:104b5400b307000072bf0000c971000067bf000006
:104b6400b5a6000059bf00002cf1000048bf0000aa
:104b7400a8a9000035bf00001e33000020bf0000bc
:104b8400a9fb000008bf00003eed0000e0be0000ed
:104b94002e390000aebe00001aa3000075be00004e
:104ba400ad5100000fbe00006b6600002dbd00007b
:104bb400d5070000523d00006b9f00000e3e000030
:104bc400f9830000613e00000ef30000953e0000f2
:104bd400ea5b0000b63e000015910000d13e0000e3
:104be400d8470000e73e000093570000f73e00005e
:104bf4008cdb0000003f0000f6400000033f000093
:104c040038f80000023f0000382d0000003f00008b
:104c140048330000f63e000035070000e83e00007f
:104c240021760000d63e00004d320000c23e000056
:104c340027f70000ab3e00009c8a0000943e000071
:104c44002c650000793e0000626700004a3e0000c7
:104c5400579500001d3e0000e0a10000e83d000063
:104c6400fab300009f3d00001c270000453d0000f2
:104c7400ae480000cc3c00009ab50000143c000093
:104c8400089a0000853a0000d44e0000833a0000e0
:104c94007fdb0000133c00006c960000cb3c00005e
:104ca40086ae0000443d0000016900009f3d000005
:104cb400bf480000e83d0000276600001d3e0000dc
:104cc400f43200004a3e0000be300000793e00008d
:104cd40065700000943e000040de0000ab3e000022
:104ce400b51a0000c23e000028610000d63e000054
:104cf4002bf60000e73e00002d260000f63e0000e3
:104d0400a2280000003f000040f60000023f00001f
:104d140046420000033f000022e00000003f000084
:104d2400fe650000f73e0000d15c0000e73e000095
:104d34009bac0000d13e0000fe7d0000b63e0000aa
:104d4400611a0000963e00007bda0000613e00001c
:104d5400cafd00000e3e0000f8a40000533d000010
:104d640042b300002bbd0000f4e000000ebe0000c2
:104d7400c22f000075be0000d2000000aebe0000cd
:104d8400e1b40000e0be0000cae0000008bf00007b
:104d9400371a000020bf0000b892000035bf0000a1
:104da400dbdc000048bf0000ab95000059bf0000e9
:104db4000664000067bf0000dffd000071bf000053
:104dc4009127000079bf000085b600007cbf000079
:104dd4002a9100007cbf00004bb0000078bf0000a7
:104de400641e000071bf0000f4f8000065bf0000fd
:104df4002a6f000057bf0000f0bf000045bf00004d
:104e0400933a000031bf0000793b00001abf000054
:104e1400d82a000001bf00001ff40000ccbe00002f
:104e24000b46000095be0000378e000038be00001f
:104e34006fd700008bbd0000db6f00002d3d00002c
:104e440010580000193e00007e180000813e00004a
:104e5400c6160000b23e000055de0000de3e000033
:104e64006b600000033f000068960000143f0000e0
:104e7400cbd60000223f00004df800002d3f00007b
:104e8400ace20000353f0000049000003a3f00000f
:104e9400280a00003c3f0000486d00003a3f000033
:104ea400a4e40000353f00008faa00002e3f00005c
:104eb40079060000253f00009d4b0000193f0000cb
:104ec40062d600000b3f0000cf140000fa3e000041
:104ed4006f9e0000da3e0000fc1d0000ba3e000098
:104ee4001a690000993e0000289b0000723e0000f1
:104ef400691d0000353e0000b18a0000f73d000046
:104f0400c1a900008f3d000018260000d33c00001a
:104f1400278800003abc00001fa1000026bd000045
:104f2400b4af00007cbd00006005000098bd000027
:104f34007d760000a0bd0000b742000098bd0000cf
:104f44009678000080bd0000b62e000035bd00003c
:104f540079050000a2bc0000896d00001c3c000023
:104f64001d2200002e3d00002b4c00009f3d000040
:104f740060590000e93d000004210000193e0000d2
:104f84006e8600003b3e0000516b00005a3e00005c
:104f9400c66d0000743e0000af250000843e000092
:104fa4007e7400008a3e00001aa800008c3e0000b7
:104fb400d46000008a3e0000255d0000833e0000ae
:104fc4000fee00006e3e00007e5200004d3e0000d9
:104fd400a31e0000223e00006e860000db3d0000a0
:104fe40089ec0000433d00009b7100009abc000066
:104ff4003be30000bbbd0000469900002dbe00004d
:105004004e62000080be000025e90000aabe000038
:10501400f5840000d5be0000fc520000ffbe000075
:1050240046b6000013bf00001878000026bf000039
:105034003480000037bf00000569000046bf00004f
:10504400d4d4000052bf0000bd6f00005cbf00005c
:1050540049f4000062bf0000132c000066bf00008a
:10506400c8ef000065bf00007828000062bf0000a0
:1050740084d300005abf0000b0fe00004fbf000000
:10508400c9c8000041bf0000f662000030bf000044
:10509400670f00001cbf0000601f000005bf000078
:1050a40033e10000d7be00007bda0000a1be00009f
:1050b4003125000052be00005c000000babd0000b3
:1050c40055db0000cd3c00008e060000103e0000c1
:1050d40024ee0000813e000077a10000b93e0000ec
:1050e400b22e0000ee3e00008a5900000f3f00007f
:1050f40009330000253f00005e4b0000383f0000ec
:1051040082560000483f0000711b0000553f00001c
:10511400936f00005e3f00004f3b0000643f0000bf
:1051240018780000663f000061320000653f00000f
:1051340001870000603f00007fa40000583f00008a
:10514400cec700004d3f00009b3d0000403f0000e3
:10515400b75d0000303f0000228900001e3f0000c0
:10516400ae2a00000b3f000039620000ed3e000053
:105174008a1f0000c33e000011700000983e00002a
:105184001e6d00005c3e0000929600000a3e000086
:105194009dbd0000733d00009eb7000031bc0000bf
:1051a4002a8d000098bd00005682000005be000054
:1051b4009cf9000035be0000451200005dbe0000f1
:1051c4008f7000007abe000072fe000086be0000f0
:1051d4004aef00008bbe00004f3b00008cbe000075
:1051e400c633000088be0000d942000080be000023
:1051f400d3d9000069be0000c98e00004dbe000076
:10520400fcfb00002cbe00005183000009be00001e
:10521400c8410000c9bd00004e4400007fbd00002d
:1052240080620000e4bc0000a3780000703b000032
:10523400a0320000fe3c000009370000593d000088
:10524400e59800008c3d0000decb00009d3d000091
:10525400efe500009e3d0000d90900008f3d0000ed
:1052640022ab00005b3d00001e8b0000ed3c000003
:105274005c06000077bb000063d1000034bd000071
:1052840089270000bbbd0000acff000013be000076
:105294000e4f00004fbe0000ba14000087be00008d
:1052a400b18a0000a7be000081430000c8be000010
:1052b40083690000e8be00008195000003bf000080
:1052c4007bda000011bf00007c9b00001ebf0000c1
:1052d4007d79000029bf0000041c000032bf0000db
:1052e4001e33000038bf0000917e00003bbf000069
:1052f400efc900003bbf000035ef000038bf0000dd
:1053040062db000032bf0000878a000029bf000072
:10531400b70b00001dbf0000187d00000dbf00008a
:10532400ef200000f6be0000200c0000ccbe000000
:105334005c5a00009dbe0000228e000055be000095
:105344005e850000d4bd0000d2670000ac3b0000c5
:105354002bfb0000ee3d0000bd1800006a3e00007b
:1053640046990000ad3e000038670000e43e0000ae
:10537400963e00000c3f00009a770000243f000096
:105384008f7000003a3f0000d6c500004d3f00007a
:10539400962100005e3f0000c13900006b3f000011
:1053a40049d70000743f0000ddd200007a3f0000be
:1053b400db1600007d3f0000fd9f00007b3f0000e6
:1053c400567d0000763f000053d000006d3f000082
:1053d400c1ca0000613f000079af0000523f0000e5
:1053e40070ce0000403f00005e8500002c3f0000ae
:1053f4001d3d0000163f00002eca0000fc3e0000c8
:10540400d5e70000ca3e0000fcc60000973e00003d
:1054140078b90000483e0000bd6d0000c63d0000a4
:1054240064400000553a00005e690000b9bd000008
:10543400bbd5000033be0000b493000081be000061
:105444006abc0000a4be00001ceb0000c2be000049
:105454001ac00000dbbe000069000000efbe0000bf
:1054640021930000fcbe0000c03e000002bf00000b
:105474006d73000003bf0000a20b000002bf000018
:105484005c720000fcbe000047770000f0be000024
:105494001fba0000e0be0000fce30000cdbe000027
:1054a4005cac0000b8be0000edd30000a1be00005b
:1054b4004b1f00008abe000000ae000064be000066
:1054c400d174000036be00004a0700000bbe000085
:1054d4008b6c0000c7bd00006a68000083bd00003b
:1054e4008813000018bd000018d000008bbc000019
:1054f40002e4000095bb0000551100008fb70000c6
:105504001e45000067bb0000ecdf000075bc000016
:1055140013ba00000bbd000067ed000076bd00006b
:105524009df10000bdbd0000a8a9000005be00005b
:1055340038a1000030be0000009100005ebe0000f3
:10554400ff04000087be00000cc800009ebe0000df
:10555400cec70000b5be0000f6400000cbbe000080
:105564008b710000debe00001b9e0000eebe00003a
:1055740032200000fbbe0000ebad000001bf0000c4
:105584009869000003bf00000d8e000002bf0000f8
:10559400d9eb0000fdbe00002f170000f1be000093
:1055a4004f920000debe000082730000c6be000001
:1055b40023f30000a8be00000569000086be0000b9
:1055c4007c9b00003ebe0000a6d50000d0bd0000bc
:1055d4008bf9000039bc000019720000ac3d0000da
:1055e400d66e00003b3e00007e180000913e000095
:1055f400f0500000c43e0000556a0000f63e000072
:1056040071380000133f0000aebb0000293f0000ca
:10561400d74c00003e3f000012830000503f0000c2
:1056240058ff00005f3f0000bd6f00006c3f0000aa
:10563400c98e0000753f00005f2900007b3f000019
:10564400191c00007d3f0000f85300007b3f000060
:1056540099d30000753f0000b0ac00006c3f00001f
:105664003e050000603f00005a120000503f000059
:10567400711b00003d3f000010750000273f000033
:10568400dc8000000f3f00003f570000eb3e0000ad
:10569400a1d60000b43e0000f7e90000783e000007
:1056a400c7630000063e0000dfdf0000a03c0000ee
:1056b400d4ee0000b7bd0000ffec000047be0000c0
:1056c40022fd000096be0000253b0000c6be00007f
:1056d4007cf20000f0be0000f64000000bbf0000aa
:1056e400e43100001bbf0000e718000028bf0000e1
:1056f40095d4000031bf0000e353000038bf000020
:10570400c89800003bbf0000f6b400003bbf000097
:1057140082ca000038bf0000890c000033bf0000bb
:105724009dba00002abf00001422000020bf000020
:10573400179a000013bf00005682000005bf000046
:10574400c7800000ecbe0000d97c0000ccbe000085
:10575400e6cb0000abbe0000f64000008bbe0000ac
:10576400c74b000057be0000157400001bbe0000ac
:105774001ea70000c8bd00006e6e00004cbd0000f6
:10578400c1d800000cbc0000745f0000ce3c0000d7
:10579400aa7f0000503d0000e1b500008b3d0000f1
:1057a40003cf00009d3d00001edf00009e3d000071
:1057b400abb200008f3d00000e150000633d0000f9
:1057c400fb2300000c3d0000c4490000f53b000031
:1057d400d13f0000c1bc0000647800006cbd000033
:1057e4000ea00000bfbd000097c5000004be00006d
:1057f4006b82000028be00002f8b000049be000011
:105804002176000066be000017f100007dbe000096
:105814000f62000087be0000e9f100008bbe0000ab
:10582400003a00008cbe0000c0e7000087be000004
:105834003c8800007dbe00009f71000061be000036
:10584400c89800003bbe0000985100000cbe000048
:10585400925a0000a8bd0000ecdd00009fbc0000cf
:105864005bee00004c3d00004b3c0000003e00009d
:10587400809f0000513e00007de80000923e000041
:1058840057950000bd3e00008cf30000e73e000089
:10589400868f0000083f00003b1900001c3f0000f9
:1058a400d52600002e3f00007f4d00003e3f000043
:1058b400ed2a00004c3f0000ae640000573f00009a
:1058c40014ae00005f3f0000e7c60000643f000024
:1058d400f67f0000663f000024b90000643f00002a
:1058e400066400005f3f0000e4830000563f0000b0
:1058f400ad2f00004a3f00000d8e00003a3f00002b
:1059040006d80000273f000008550000123f0000a1
:10591400cbb90000f43e0000c6a70000c03e000062
:10592400e44e0000893e0000a34000001f3e00003a
:10593400b5a70000243d00003a4100009bbd0000d3
:10594400ad17000043be00001f9d00009abe00007a
:10595400b30c0000d1be0000f9f7000001bf000045
:105964009b38000019bf0000eae700002dbf0000cb
:10597400abb200003fbf0000045600004ebf000061
:10598400889d000059bf00007368000061bf0000db
:10599400b9a5000065bf0000ac56000066bf00005a
:1059a4004390000063bf00008a7600005dbf0000e2
:1059b400ee3d000054bf0000e92b000048bf00008a
:1059c4001591000039bf000032c9000028bf000053
:1059d400253b000016bf00001153000002bf000069
:1059e4005c030000dbbe0000a7740000b0be000032
:1059f40016de000085be0000543a000038be0000e8
:105a0400a9130000d0bd0000c5550000e5bc00008e
:105a1400dc0d0000223d0000aca90000cc3d0000dc
:105a240074d200001b3e0000e1400000483e00002c
:105a3400e21e00006b3e000065190000823e00007b
:105a44004dbe0000893e0000ed9e00008c3e00002b
:105a54002ffa00008a3e0000732e0000853e0000ed
:105a6400bf600000773e00006a1800005e3e000040
:105a7400b5c300003f3e000048bf00001d3e0000cb
:105a840049f40000f23d0000bddf0000a83d000025
:105a9400bb7b0000403d000072a800005f3c00009a
:105aa400cedf000084bc0000bc76000029bd0000ed
:105ab400849f000078bd00003106000096bd000000
:105ac400ca510000a0bd0000551500009abd000099
:105ad4000da9000082bd0000b6bf000033bd000068
:105ae400f129000080bc00000b240000a83c000049
:105af40094150000833d0000dc630000e93d0000d4
:105b0400776700002d3e00003f6f00006a3e0000f2
:105b140012310000953e000016de0000b53e000084
:105b2400936f0000d63e000023150000f63e0000ef
:105b3400e7fb0000093f000098a30000173f0000a6
:105b4400b79c0000233f0000828b00002d3f000023
:105b5400221a0000353f0000d6ff0000393f000044
:105b6400540000003c3f00000bef00003a3f0000ef
:105b74002ead0000363f0000492e00002f3f0000ec
:105b8400f3760000243f0000249c0000163f000030
:105b9400d6c50000053f00002e560000e43e00007c
:105ba400fa270000b83e000075ab0000873e0000f5
:105bb400774a0000273e0000397b0000673d000063
:105bc400645d00005cbd000005a8000029be000063
:105bd40029ed00008dbe0000e9d40000c5be000020
:105be400eb900000fbbe00000916000017bf000088
:105bf400d95f00002ebf0000083d000043bf000035
:105c0400374f000055bf0000cc45000064bf0000c2
:105c140094de00006fbf000010e9000077bf0000b1
:105c2400cc4500007cbf0000abe700007cbf000057
:105c340046d3000079bf0000e21e000073bf0000dd
:105c440073f4000068bf0000548c00005bbf0000c8
:105c5400ec2f00004bbf0000bd35000038bf000032
:105c64001500000023bf00006efa00000bbf000007
:105c740090310000e7be000022a60000b4be000080
:105c84005f46000081be00005e1100001cbe0000e3
:105c9400bbd600005ebd000060060000233d00008e
:105ca40019ad0000033e0000508d0000573e000077
:105cb40037890000913e0000fb910000b23e0000d5
:105cc400da720000ce3e00002fdd0000e43e00004a
:105cd4001aa30000f53e0000685c0000003f0000cd
:105ce4004c1a0000033f000070250000033f000031
:105cf4006da80000003f0000f2b50000f73e000070
:105d040075020000ea3e0000fed40000d83e000008
:105d14002fdd0000c43e000077d60000ae3e000038
:105d240073850000973e0000186000007f3e00006d
:105d3400bd350000503e0000910a0000233e0000e3
:105d4400f1800000f23d00005b400000a83d00002f
:105d540038130000533d00009aef0000e03c0000bf
:105d6400c17000002e3c000003ae0000d03a0000d9
:105d740026e90000123a0000c0700000f83b000061
:105d840010e90000b73c0000b5340000373d0000c6
:105d9400e90d0000973d0000618e0000de3d00002b
:105da40009fe0000173e0000156f0000443e00008d
:105db40071380000733e00003f740000913e000003
:105dc400b1f90000a83e0000f5670000bf3e0000e6
:105dd400cff70000d33e000081ec0000e53e000058
:105de400c9930000f43e000080480000ff3e00001c
:105df4008cbe0000023f0000cc5d0000033f0000a9
:105e04007a530000013f0000de020000f93e00006a
:105e1400e2af0000e93e00003eb30000d43e0000c3
:105e2400a5310000ba3e00008f7000009a3e0000c9
:105e340010af00006b3e000046d30000193e000086
:105e4400fb220000813d00004d100000f5bc000065
:105e54002029000002be00002046000068be0000a9
:105e64003f910000a7be0000016a0000dabe0000f6
