:020000040000fa
:080000000002040000000000f2
:020000040000fa
:100008009a0200009a0200009a0200009a02000078
:100018009a0200009a0200009a0200009a02000068
:100028009a0200009a0200009a0200009a02000058
:100038009a0200009a0200009a0200009a02000048
:020000040000fa
:020000040000fa
:10040000af8020000e7f24000e0188000000000055
:10041000000020000000e000020032000001200087
:10042000200288000c0007008054200001002000fa
:1004300011000700000020000000e0000200320070
:100440000000020000000000720402000000000032
:100450000040da000000fe004440a9000000200037
:100460000000e0000300320000002000a00188002e
:100470004440a80000000600910188008000780038
:100480000000eb0015003700e280400032a0b4000d
:100490009101ba00e280400032a0b4009102ba009b
:1004a000e280400032a0b4000002eb00472bde00e7
:1004b000f507b200602ce10004003a000059eb009f
:1004c0008301e900fdff3e00040037006128e100e0
:1004d000010032000082eb00040007001101ba00a5
:1004e0000200e000e8ff3a00000006003159ba00bf
:1004f0008301e9000c0032002159ba008301e900b0
:10050000080032000400e00003003a00e2804000ee
:1005100032a0b400f5ff370011d9ba008301e90019
:10052000faff3a008100e800e180400032a0b40008
:10053000000006000040da000000fe000001be00de
:10054000220007000470a70003f0a1006509b100b4
:10055000160032000d0035006828e1000600350065
:10056000f0ff2f00f1ff27000300e00013003b0025
:1005700001002800000005000000400081804800c4
:100580008502e900fcff3a0008003700f88f4200be
:1005900002003c008000eb00000005008100d1005b
:1005a0000080d3008502e800fcff3a000300e00071
:1005b00002003b0060001000e08018000000060010
:1005c0004f89de008201780049003700c70ade004b
:1005d000f107b200f50fb20008003200e1cf42008f
:1005e000020032000170a00024000500810f70009d
:1005f000010032000408050044000500810f70006e
:1006000002003a00140005008502e90000004000e5
:1006100081c04800fcff3b000170a00024000500e1
:10062000889fbe008a9fbe008c1f7800950007003f
:100630009c00330003866c006450e100240032000b
:100640006420e100270032006150e1002200320006
:100650006120e100210032008b854200eb07b100f0
:100660000134b800003ab8000804420089844a0006
:10067000013ab8000030b8008880400009014a0003
:10068000040033000000400081804800020149005e
:100690008b05e900c909dd0083017000010032000b
:1006a00013002000c814de004814dd004709de00f6
:1006b0001200b200c808de00088470004b0007007a
:1006c00001f0a1000cf0a70001f0a0007e003700af
:1006d0006120e100800032000801be000200be007f
:1006e000f7ff37006150e100fcff3a007a00370065
:1006f000881f7800030478000300e00007003d0035
:1007000060001000e080180060011900e08119000d
:1007100002003b0001f02d00030037000400070039
:1007200008f0a70001f0a0004f04780000000600c8
:10073000889fbe008a9fbe00008270000402710084
:1007400004827100260032000004be000200be00d8
:100750006011b8006b092000950220000182cf00d3
:100760000a0039000541b1000082cf0007003900be
:100770000541b1000982cf00040039000541b100f4
:100780000882cf00010039000541b1000542520046
:10079000120032000a003b00828171006101640096
:1007a0008100d1000080d3008984d3000884d30065
:1007b0008b05e8000442e800f7ff3a000700370025
:1007c0000804440089844c000000480081804800ef
:1007d0008b05e9000442e900f9ff3a000300070035
:1007e0004f05be004f04be0000000600810020003f
:1007f000618055000b003d000b00200061fe2f00c2
:100800000100e1001d00340082817100610164007b
:100810008904d1000884d3000000e800faff3a0000
:10082000710020006100640003007000020060009d
:100830000900320061044400e0844c000988a500ee
:10084000050032008b05e8006808e10002003a006c
:100850008904d1000884d300f20f20000258e1007f
:1008600005003d00c75ddd00f907b2008980750015
:1008700008007800000006000bf827008b007800c5
:10088000000005000004be0050ff07000003be008a
:100890000405be000200be004cff0700844f750037
:1008a000000006000200be006450e10005003600b2
:1008b0006420e100020036000968a30001003a004c
:1008c0000800be000160a0004f0678004f05be0082
:1008d0004f04be0000000600f0ff2f00f1ff2700cc
:0408e000f9ff3700e5
:020000040000fa
:1008e4000400fa00889fbe00000f780011079800ea
:1008f400310007000002eb000440880029003700a3
:10090400000000000419800061026200e00f520040
:10091400fcff32002003a900041880001440880062
:1009240014408000cfa2de000400be0023ff0700b5
:100934000004be0004408000c222dd000400280040
:10094400048242001402be0002002000031f24009f
:100954000400be0031ff07000002be000401be0017
:100964000800be002dff07000002be0034408800ce
:100974004540880034408000454080000400be00ab
:10098400edfe07000002be00040278002440880047
:1009940024408000b41f8800044080000402e80062
:1009a4000440880005408000f4702200848f5200c7
:1009b400d3ff3600cfff37000000fa00143a80005e
:1009c4000480a0000490a00004a0a100143a8800b0
:1009d4004ba7a800543a800004b0a00004c0a100b2
:1009e400543a8800543a80000480a0000490a00087
:1009f40004a0a000543a8800f1e3a800f103a80081
:100a0400f3e3a800f2e3a8000002eb00a41f8800af
:100a140021e3a8002143a900041980000480a00058
:100a24000490a10004198800041980000450a00057
:100a34000460a0000470a000041988002043a800ea
:100a440025e3a8002519800004f0210005027200a6
:100a54002419880045198000f40f2e0004826200d6
:100a6400441988004519800004fe2f0004826200a6
:100a74004419880014002000041688000002eb00ca
:0c0a8400441688000080fa000000060004
:020000040000fa
:100a9000000800000a000000000000000000000044
:020000040000fa
:0200000401f009
:04000000ffff0000fe
:020000040000fa
:0200000401f009
:04000400ffff0000fa
:020000040000fa
:0200000401f009
:04000800ffff0000f6
:020000040000fa
:0200000401f009
:04000c00830000006d
:020000040000fa
:0200000401f009
:04001000a20000004a
:020000040000fa
:0200000401f009
:040014005f00000089
:020000040000fa
:0200000401f009
:04001800f7000000ed
:020000040000fa
:0200000401f009
:04001c00dfff000002
:00000001FF
